{
  "contractName": "Escode",
  "abi": [
    {
      "inputs": [],
      "payable": false,
      "stateMutability": "nonpayable",
      "type": "constructor"
    },
    {
      "anonymous": false,
      "inputs": [
        {
          "indexed": true,
          "internalType": "address",
          "name": "job",
          "type": "address"
        }
      ],
      "name": "Approved",
      "type": "event"
    },
    {
      "anonymous": false,
      "inputs": [
        {
          "indexed": true,
          "internalType": "address",
          "name": "job",
          "type": "address"
        }
      ],
      "name": "Closed",
      "type": "event"
    },
    {
      "anonymous": false,
      "inputs": [
        {
          "indexed": true,
          "internalType": "address",
          "name": "job",
          "type": "address"
        }
      ],
      "name": "Deleted",
      "type": "event"
    },
    {
      "anonymous": false,
      "inputs": [
        {
          "indexed": true,
          "internalType": "address",
          "name": "freelancer",
          "type": "address"
        }
      ],
      "name": "Rejected",
      "type": "event"
    },
    {
      "anonymous": false,
      "inputs": [
        {
          "indexed": true,
          "internalType": "address",
          "name": "freelancer",
          "type": "address"
        }
      ],
      "name": "Submitted",
      "type": "event"
    },
    {
      "anonymous": false,
      "inputs": [
        {
          "indexed": true,
          "internalType": "address",
          "name": "freelancer",
          "type": "address"
        }
      ],
      "name": "Verified",
      "type": "event"
    },
    {
      "constant": true,
      "inputs": [],
      "name": "chairperson",
      "outputs": [
        {
          "internalType": "address payable",
          "name": "",
          "type": "address"
        }
      ],
      "payable": false,
      "stateMutability": "view",
      "type": "function"
    },
    {
      "constant": false,
      "inputs": [
        {
          "internalType": "bytes32",
          "name": "khash",
          "type": "bytes32"
        },
        {
          "internalType": "address",
          "name": "verifyer",
          "type": "address"
        }
      ],
      "name": "createJob",
      "outputs": [],
      "payable": true,
      "stateMutability": "payable",
      "type": "function"
    },
    {
      "constant": false,
      "inputs": [],
      "name": "deleteJob",
      "outputs": [],
      "payable": false,
      "stateMutability": "nonpayable",
      "type": "function"
    },
    {
      "constant": false,
      "inputs": [
        {
          "internalType": "address",
          "name": "jobAddress",
          "type": "address"
        }
      ],
      "name": "removeJob",
      "outputs": [],
      "payable": false,
      "stateMutability": "nonpayable",
      "type": "function"
    },
    {
      "constant": false,
      "inputs": [
        {
          "internalType": "address",
          "name": "jobAddress",
          "type": "address"
        },
        {
          "internalType": "bytes32",
          "name": "submissionHash",
          "type": "bytes32"
        }
      ],
      "name": "createSubmission",
      "outputs": [],
      "payable": false,
      "stateMutability": "nonpayable",
      "type": "function"
    },
    {
      "constant": false,
      "inputs": [
        {
          "internalType": "address",
          "name": "jobAddress",
          "type": "address"
        },
        {
          "internalType": "bytes32",
          "name": "codeSubmittedHash",
          "type": "bytes32"
        }
      ],
      "name": "verify",
      "outputs": [],
      "payable": false,
      "stateMutability": "nonpayable",
      "type": "function"
    },
    {
      "constant": false,
      "inputs": [
        {
          "internalType": "address",
          "name": "jobAddress",
          "type": "address"
        },
        {
          "internalType": "bytes32",
          "name": "codeSubmittedHash",
          "type": "bytes32"
        }
      ],
      "name": "reject",
      "outputs": [],
      "payable": false,
      "stateMutability": "nonpayable",
      "type": "function"
    },
    {
      "constant": false,
      "inputs": [
        {
          "internalType": "address",
          "name": "jobAddress",
          "type": "address"
        }
      ],
      "name": "approve",
      "outputs": [],
      "payable": false,
      "stateMutability": "nonpayable",
      "type": "function"
    },
    {
      "constant": false,
      "inputs": [
        {
          "internalType": "uint256",
          "name": "value",
          "type": "uint256"
        },
        {
          "internalType": "bytes32",
          "name": "secret",
          "type": "bytes32"
        }
      ],
      "name": "transacted",
      "outputs": [],
      "payable": false,
      "stateMutability": "nonpayable",
      "type": "function"
    }
  ],
  "bytecode": "0x608060405234801561001057600080fd5b5033600160006101000a81548173ffffffffffffffffffffffffffffffffffffffff021916908373ffffffffffffffffffffffffffffffffffffffff1602179055506114a9806100616000396000f3fe6080604052600436106100865760003560e01c80632ebbb46b116100595780632ebbb46b1461019957806363a4470b146101f45780637706ebc81461024f578063807119891461029d578063daea85c5146102ee57610086565b80630dd5ee1b1461008b578063269cba40146100e657806326afa075146100fd5780632e4176cf14610142575b600080fd5b34801561009757600080fd5b506100e4600480360360408110156100ae57600080fd5b81019080803573ffffffffffffffffffffffffffffffffffffffff1690602001909291908035906020019092919050505061033f565b005b3480156100f257600080fd5b506100fb6105b1565b005b34801561010957600080fd5b506101406004803603604081101561012057600080fd5b810190808035906020019092919080359060200190929190505050610740565b005b34801561014e57600080fd5b50610157610973565b604051808273ffffffffffffffffffffffffffffffffffffffff1673ffffffffffffffffffffffffffffffffffffffff16815260200191505060405180910390f35b3480156101a557600080fd5b506101f2600480360360408110156101bc57600080fd5b81019080803573ffffffffffffffffffffffffffffffffffffffff16906020019092919080359060200190929190505050610999565b005b34801561020057600080fd5b5061024d6004803603604081101561021757600080fd5b81019080803573ffffffffffffffffffffffffffffffffffffffff16906020019092919080359060200190929190505050610c65565b005b61029b6004803603604081101561026557600080fd5b8101908080359060200190929190803573ffffffffffffffffffffffffffffffffffffffff169060200190929190505050610e44565b005b3480156102a957600080fd5b506102ec600480360360208110156102c057600080fd5b81019080803573ffffffffffffffffffffffffffffffffffffffff169060200190929190505050610fdf565b005b3480156102fa57600080fd5b5061033d6004803603602081101561031157600080fd5b81019080803573ffffffffffffffffffffffffffffffffffffffff1690602001909291905050506111c9565b005b81600180600481111561034e57fe5b6000808473ffffffffffffffffffffffffffffffffffffffff1673ffffffffffffffffffffffffffffffffffffffff16815260200190815260200160002060050160009054906101000a900460ff1660048111156103a857fe5b146103b257600080fd5b8383806000808473ffffffffffffffffffffffffffffffffffffffff1673ffffffffffffffffffffffffffffffffffffffff168152602001908152602001600020600301600001541461040457600080fd5b856000808273ffffffffffffffffffffffffffffffffffffffff1673ffffffffffffffffffffffffffffffffffffffff16815260200190815260200160002060010160009054906101000a900473ffffffffffffffffffffffffffffffffffffffff1673ffffffffffffffffffffffffffffffffffffffff163373ffffffffffffffffffffffffffffffffffffffff161461049e57600080fd5b60026000808973ffffffffffffffffffffffffffffffffffffffff1673ffffffffffffffffffffffffffffffffffffffff16815260200190815260200160002060050160006101000a81548160ff021916908360048111156104fc57fe5b02179055506000808873ffffffffffffffffffffffffffffffffffffffff1673ffffffffffffffffffffffffffffffffffffffff16815260200190815260200160002060030160010160009054906101000a900473ffffffffffffffffffffffffffffffffffffffff1673ffffffffffffffffffffffffffffffffffffffff167f6a6455914f452787eb3985452aceedc1000fb545e394eb3b370e3d08958e0a5b60405160405180910390a250505050505050565b3373ffffffffffffffffffffffffffffffffffffffff166108fc6000803373ffffffffffffffffffffffffffffffffffffffff1673ffffffffffffffffffffffffffffffffffffffff168152602001908152602001600020600201549081150290604051600060405180830381858888f19350505050158015610638573d6000803e3d6000fd5b503373ffffffffffffffffffffffffffffffffffffffff167f7fb2e49c6d2dcc748cced4be404df4b502a5091d84f32f62fa7821b5f9231f6b60405160405180910390a26000803373ffffffffffffffffffffffffffffffffffffffff1673ffffffffffffffffffffffffffffffffffffffff1681526020019081526020016000206000808201600090556001820160006101000a81549073ffffffffffffffffffffffffffffffffffffffff02191690556002820160009055600382016000808201600090556001820160006101000a81549073ffffffffffffffffffffffffffffffffffffffff021916905550506005820160006101000a81549060ff02191690555050565b33600380600481111561074f57fe5b6000808473ffffffffffffffffffffffffffffffffffffffff1673ffffffffffffffffffffffffffffffffffffffff16815260200190815260200160002060050160009054906101000a900460ff1660048111156107a957fe5b146107b357600080fd5b83836040516020018083815260200182815260200192505050604051602081830303815290604052805190602001206000803373ffffffffffffffffffffffffffffffffffffffff1673ffffffffffffffffffffffffffffffffffffffff16815260200190815260200160002060030160000154141561096d576000803373ffffffffffffffffffffffffffffffffffffffff1673ffffffffffffffffffffffffffffffffffffffff1681526020019081526020016000206000808201600090556001820160006101000a81549073ffffffffffffffffffffffffffffffffffffffff02191690556002820160009055600382016000808201600090556001820160006101000a81549073ffffffffffffffffffffffffffffffffffffffff021916905550506005820160006101000a81549060ff021916905550503373ffffffffffffffffffffffffffffffffffffffff167f13607bf9d2dd20e1f3a7daf47ab12856f8aad65e6ae7e2c75ace3d0c424a40e860405160405180910390a2600160009054906101000a900473ffffffffffffffffffffffffffffffffffffffff1673ffffffffffffffffffffffffffffffffffffffff16ff5b50505050565b600160009054906101000a900473ffffffffffffffffffffffffffffffffffffffff1681565b8160018060048111156109a857fe5b6000808473ffffffffffffffffffffffffffffffffffffffff1673ffffffffffffffffffffffffffffffffffffffff16815260200190815260200160002060050160009054906101000a900460ff166004811115610a0257fe5b14610a0c57600080fd5b8383806000808473ffffffffffffffffffffffffffffffffffffffff1673ffffffffffffffffffffffffffffffffffffffff1681526020019081526020016000206003016000015414610a5e57600080fd5b856000808273ffffffffffffffffffffffffffffffffffffffff1673ffffffffffffffffffffffffffffffffffffffff16815260200190815260200160002060010160009054906101000a900473ffffffffffffffffffffffffffffffffffffffff1673ffffffffffffffffffffffffffffffffffffffff163373ffffffffffffffffffffffffffffffffffffffff1614610af857600080fd5b600160009054906101000a900473ffffffffffffffffffffffffffffffffffffffff1673ffffffffffffffffffffffffffffffffffffffff163373ffffffffffffffffffffffffffffffffffffffff1614610b5257600080fd5b60008060008973ffffffffffffffffffffffffffffffffffffffff1673ffffffffffffffffffffffffffffffffffffffff16815260200190815260200160002060050160006101000a81548160ff02191690836004811115610bb057fe5b02179055506000808873ffffffffffffffffffffffffffffffffffffffff1673ffffffffffffffffffffffffffffffffffffffff16815260200190815260200160002060030160010160009054906101000a900473ffffffffffffffffffffffffffffffffffffffff1673ffffffffffffffffffffffffffffffffffffffff167faf77f8960cf590e245ec8b6d41c193a5dcacad8986ae4eb57ac9e5be7b6af03160405160405180910390a250505050505050565b816000806004811115610c7457fe5b6000808473ffffffffffffffffffffffffffffffffffffffff1673ffffffffffffffffffffffffffffffffffffffff16815260200190815260200160002060050160009054906101000a900460ff166004811115610cce57fe5b14610cd857600080fd5b60405180604001604052808481526020013373ffffffffffffffffffffffffffffffffffffffff168152506000808673ffffffffffffffffffffffffffffffffffffffff1673ffffffffffffffffffffffffffffffffffffffff1681526020019081526020016000206003016000820151816000015560208201518160010160006101000a81548173ffffffffffffffffffffffffffffffffffffffff021916908373ffffffffffffffffffffffffffffffffffffffff16021790555090505060016000808673ffffffffffffffffffffffffffffffffffffffff1673ffffffffffffffffffffffffffffffffffffffff16815260200190815260200160002060050160006101000a81548160ff02191690836004811115610df657fe5b02179055503373ffffffffffffffffffffffffffffffffffffffff167f1ed657d5540dc57b6181fb8e1b90fa1620897560baf17d1646f17d12ff256cb760405160405180910390a250505050565b6040518060a001604052808381526020018273ffffffffffffffffffffffffffffffffffffffff16815260200134815260200160405180604001604052806000801b81526020013373ffffffffffffffffffffffffffffffffffffffff16815250815260200160006004811115610eb757fe5b8152506000803373ffffffffffffffffffffffffffffffffffffffff1673ffffffffffffffffffffffffffffffffffffffff1681526020019081526020016000206000820151816000015560208201518160010160006101000a81548173ffffffffffffffffffffffffffffffffffffffff021916908373ffffffffffffffffffffffffffffffffffffffff160217905550604082015181600201556060820151816003016000820151816000015560208201518160010160006101000a81548173ffffffffffffffffffffffffffffffffffffffff021916908373ffffffffffffffffffffffffffffffffffffffff160217905550505060808201518160050160006101000a81548160ff02191690836004811115610fd357fe5b02179055509050505050565b600160009054906101000a900473ffffffffffffffffffffffffffffffffffffffff1673ffffffffffffffffffffffffffffffffffffffff163373ffffffffffffffffffffffffffffffffffffffff161461103957600080fd5b3373ffffffffffffffffffffffffffffffffffffffff166108fc6000808473ffffffffffffffffffffffffffffffffffffffff1673ffffffffffffffffffffffffffffffffffffffff168152602001908152602001600020600201549081150290604051600060405180830381858888f193505050501580156110c0573d6000803e3d6000fd5b508073ffffffffffffffffffffffffffffffffffffffff167f7fb2e49c6d2dcc748cced4be404df4b502a5091d84f32f62fa7821b5f9231f6b60405160405180910390a26000808273ffffffffffffffffffffffffffffffffffffffff1673ffffffffffffffffffffffffffffffffffffffff1681526020019081526020016000206000808201600090556001820160006101000a81549073ffffffffffffffffffffffffffffffffffffffff02191690556002820160009055600382016000808201600090556001820160006101000a81549073ffffffffffffffffffffffffffffffffffffffff021916905550506005820160006101000a81549060ff0219169055505050565b600160009054906101000a900473ffffffffffffffffffffffffffffffffffffffff1673ffffffffffffffffffffffffffffffffffffffff163373ffffffffffffffffffffffffffffffffffffffff161461122357600080fd5b80600280600481111561123257fe5b6000808473ffffffffffffffffffffffffffffffffffffffff1673ffffffffffffffffffffffffffffffffffffffff16815260200190815260200160002060050160009054906101000a900460ff16600481111561128c57fe5b1461129657600080fd5b60036000808573ffffffffffffffffffffffffffffffffffffffff1673ffffffffffffffffffffffffffffffffffffffff16815260200190815260200160002060050160006101000a81548160ff021916908360048111156112f457fe5b02179055506000808473ffffffffffffffffffffffffffffffffffffffff1673ffffffffffffffffffffffffffffffffffffffff16815260200190815260200160002060030160010160009054906101000a900473ffffffffffffffffffffffffffffffffffffffff1673ffffffffffffffffffffffffffffffffffffffff166108fc6000808673ffffffffffffffffffffffffffffffffffffffff1673ffffffffffffffffffffffffffffffffffffffff168152602001908152602001600020600201549081150290604051600060405180830381858888f193505050501580156113e4573d6000803e3d6000fd5b5060008060008573ffffffffffffffffffffffffffffffffffffffff1673ffffffffffffffffffffffffffffffffffffffff168152602001908152602001600020600201819055508273ffffffffffffffffffffffffffffffffffffffff167f5d91bd0cecc45fef102af61de92c5462fadc884a5ce9d21c15e8a85198f2349e60405160405180910390a250505056fea265627a7a72315820e8e5131438b91543b41369abe61cbabc5714cd139726c54265dc9c142833c7b064736f6c63430005100032",
  "source": "pragma solidity >=0.4.22 <=0.6.0;\r\n\r\ncontract Escode {\r\n\r\n    struct Job {\r\n        bytes32 jobHash;\r\n        address verifyer;\r\n        uint bounty;\r\n        Submission submission;\r\n        State currentState;\r\n    }\r\n    \r\n    struct Submission{\r\n        bytes32 codeHash;\r\n        address payable freelancer;\r\n    }\r\n\r\n    //States for Jobs\r\n    enum State {Created, Submitted, Verified, Approved, Transacted}  \r\n    \r\n    mapping(address=>Job) Jobs;\r\n\r\n    address payable public chairperson;\r\n    \r\n    \r\n    //modifiers\r\n    modifier validState(address job, State reqState) \r\n    { require(Jobs[job].currentState == reqState); \r\n       _; \r\n    } \r\n\r\n    modifier onlyChairperson(){ \r\n        require(msg.sender == chairperson); \r\n        _;\r\n    }\r\n   \r\n    modifier onlyVerifyer(address job){\r\n        require(msg.sender == Jobs[job].verifyer);\r\n        _;\r\n    }\r\n   \r\n    modifier validCode(address jobAddress, bytes32 codeOfHash){\r\n        require(Jobs[jobAddress].submission.codeHash == codeOfHash);\r\n        _;\r\n    }\r\n\r\n    //Events\r\n    event Submitted(address indexed freelancer);\r\n    event Deleted(address indexed job);\r\n    event Verified(address indexed freelancer);\r\n    event Rejected(address indexed freelancer);\r\n    event Approved(address indexed job);\r\n    event Closed(address indexed job);\r\n\r\n    constructor(  ) public {    \r\n        chairperson = msg.sender;\r\n    }\r\n    \r\n    function createJob(bytes32 khash, address verifyer) public payable{\r\n        //take escrow\r\n        Jobs[msg.sender] = Job({\r\n            jobHash: khash,\r\n            verifyer: verifyer,\r\n            currentState: State.Created,\r\n            bounty: msg.value,\r\n            submission: Submission({ //used as a placeholder to initialize object\r\n                codeHash: 0,\r\n                freelancer: msg.sender\r\n            })\r\n        });\r\n    }\r\n    \r\n    function deleteJob() public {\r\n        //return escrow\r\n        msg.sender.transfer(Jobs[msg.sender].bounty);\r\n        emit Deleted(msg.sender);\r\n        delete Jobs[msg.sender];\r\n    }\r\n    \r\n    function removeJob(address jobAddress) public onlyChairperson(){\r\n        msg.sender.transfer(Jobs[jobAddress].bounty);\r\n        emit Deleted(jobAddress);\r\n        delete Jobs[jobAddress];\r\n    }\r\n    \r\n    function createSubmission(address jobAddress, bytes32 submissionHash) public validState(jobAddress, State.Created) {\r\n        Jobs[jobAddress].submission = Submission ({\r\n            codeHash: submissionHash,\r\n            freelancer: msg.sender\r\n        });\r\n        Jobs[jobAddress].currentState = State.Submitted;\r\n        emit Submitted(msg.sender);\r\n    }\r\n    \r\n    //only verifyer\r\n    function verify(address jobAddress, bytes32 codeSubmittedHash) public \r\n    validState(jobAddress, State.Submitted) validCode(jobAddress, codeSubmittedHash) onlyVerifyer(jobAddress){\r\n        Jobs[jobAddress].currentState = State.Verified;\r\n        emit Verified(Jobs[jobAddress].submission.freelancer);\r\n    }\r\n    \r\n    function reject(address jobAddress, bytes32 codeSubmittedHash) public \r\n    validState(jobAddress, State.Submitted) validCode(jobAddress, codeSubmittedHash) onlyVerifyer(jobAddress) onlyChairperson(){\r\n        \r\n        Jobs[jobAddress].currentState = State.Created;\r\n        emit Rejected(Jobs[jobAddress].submission.freelancer);\r\n    }\r\n    \r\n    //only chairperson\r\n    function approve(address jobAddress) public onlyChairperson() validState(jobAddress, State.Verified) {\r\n        \r\n        Jobs[jobAddress].currentState = State.Approved;\r\n        Jobs[jobAddress].submission.freelancer.transfer(Jobs[jobAddress].bounty);\r\n        Jobs[jobAddress].bounty = 0;\r\n        emit Approved(jobAddress);\r\n    }\r\n    \r\n    function transacted(uint value, bytes32 secret) public validState(msg.sender, State.Approved){\r\n        //add event saying code was sent\r\n        //use keccak secret?\r\n        \r\n        if(Jobs[msg.sender].submission.codeHash == keccak256(abi.encodePacked(value, secret))){\r\n            delete Jobs[msg.sender];\r\n            emit Closed(msg.sender);\r\n            selfdestruct(chairperson);\r\n        }\r\n    }\r\n    \r\n    \r\n\r\n}",
  "sourcePath": "C:/Users/JustinKozlowski/Documents/UB/CSE 426/Escode/escode-contract/contracts/Escode.sol",
  "compiler": {
    "name": "solc",
    "version": "0.5.16+commit.9c3226ce.Emscripten.clang"
  },
  "schemaVersion": "3.2.5",
  "updatedAt": "2020-11-26T03:49:02.112Z",
  "networkType": "ethereum",
  "devdoc": {
    "methods": {}
  },
  "userdoc": {
    "methods": {}
  }
}